S00B000042434D2E7372656347
S11300000C942A000C9447000C9447000C9447006D
S11300100C9447000C9447000C9447000C94470040
S11300200C9447000C9447000C9447000C94470030
S11300300C9447000C94F8020C9447000C9427038A
S11300400C9447000C9447000C9447000C94470010
S11300500C94470011241FBECFE5D8E0DEBFCDBF0E
S113006010E0A0E6B0E0EAE4FAE002C005900D92E8
S1130070AE36B107D9F720E0AEE6B0E001C01D927C
S1130080AF37B207E1F70E9449000C9423050C94A2
S11300900000CF93DF9300D000D000D00F92CDB7F3
S11300A0DEB727E0E1E6F0E0CE010196DC01019045
S11300B00D922A95E1F788E690E00E94A20461E09F
S11300C070E080E090E00E94710061E070E081E007
S11300D090E00E94710067E0CE0101960E9406053F
S11300E0FFCFCF93DF9300D00F92CDB7DEB78A83D3
S11300F06B838A81803218F48A81803210F080E028
S1130100E5C08A818695869586958F5B89838A81E9
S113011087708A838981882F90E08434910509F45B
S1130120A3C0853491050CF0CEC08334910509F445
S11301306BC0843491050CF0C6C08134910521F064
S11301408234910589F1BFC08B818823B9F48AE395
S113015090E0FC018081482F8A81282F30E081E0E3
S113016090E002C0880F991F2A95E2F78095242F0A
S113017028238AE390E0FC012083A7C08AE390E06F
S1130180FC018081482F8A81282F30E081E090E0B3
S113019002C0880F991F2A95E2F7242F282B8AE39F
S11301A090E0FC01208391C08B818823B9F487E31C
S11301B090E0FC018081482F8A81282F30E081E083
S11301C090E002C0880F991F2A95E2F78095242FAA
S11301D0282387E390E0FC01208377C087E390E045
S11301E0FC018081482F8A81282F30E081E090E053
S11301F002C0880F991F2A95E2F7242F282B87E342
S113020090E0FC01208361C08B818823B9F484E3EE
S113021090E0FC018081482F8A81282F30E081E022
S113022090E002C0880F991F2A95E2F78095242F49
S1130230282384E390E0FC01208347C084E390E01A
S1130240FC018081482F8A81282F30E081E090E0F2
S113025002C0880F991F2A95E2F7242F282B84E3E4
S113026090E0FC01208331C08B818823B9F481E3C1
S113027090E0FC018081482F8A81282F30E081E0C2
S113028090E002C0880F991F2A95E2F78095242FE9
S1130290282381E390E0FC01208315C081E390E0F2
S11302A0FC018081482F8A81282F30E081E090E092
S11302B002C0880F991F2A95E2F7242F282B81E387
S11302C090E0FC01208381E001C080E00F900F905A
S11302D00F90DF91CF910895CF93DF9300D00F92C9
S11302E0CDB7DEB78A836B838A81803218F48A8122
S11302F0803210F081E0E6C08A81869586958695E5
S11303008F5B89838A8187708A838981882F90E0B3
S11303108434910509F4A3C0853491050CF0CFC051
S11303208334910509F46BC0843491050CF0C7C083
S11303308134910521F08234910589F1C0C08B810B
S11303408823B9F48BE390E0FC018081482F8A81F3
S1130350282F30E081E090E002C0880F991F2A9591
S1130360E2F78095242F28238BE390E0FC0120837F
S1130370A8C08BE390E0FC018081482F8A81282F5C
S113038030E081E090E002C0880F991F2A95E2F7DF
S1130390242F282B8BE390E0FC01208392C08B81D7
S11303A08823B9F488E390E0FC018081482F8A8196
S11303B0282F30E081E090E002C0880F991F2A9531
S11303C0E2F78095242F282388E390E0FC01208322
S11303D078C088E390E0FC018081482F8A81282F2F
S11303E030E081E090E002C0880F991F2A95E2F77F
S11303F0242F282B88E390E0FC01208362C08B81AA
S11304008823B9F485E390E0FC018081482F8A8138
S1130410282F30E081E090E002C0880F991F2A95D0
S1130420E2F78095242F282385E390E0FC012083C4
S113043048C085E390E0FC018081482F8A81282F01
S113044030E081E090E002C0880F991F2A95E2F71E
S1130450242F282B85E390E0FC01208332C08B817C
S11304608823B9F482E390E0FC018081482F8A81DB
S1130470282F30E081E090E002C0880F991F2A9570
S1130480E2F78095242F282382E390E0FC01208367
S113049018C082E390E0FC018081482F8A81282FD4
S11304A030E081E090E002C0880F991F2A95E2F7BE
S11304B0242F282B82E390E0FC01208302C081E0FA
S11304C001C080E00F900F900F90DF91CF910895BD
S11304D0CF93DF9300D0CDB7DEB78A838A81803291
S11304E018F48A81803210F081E07DC08A8186957B
S11304F0869586958F5B89838A8187708A838981B3
S1130500882F90E08434910509F454C08534910512
S11305100CF066C083349105B9F1843491050CF074
S11305205FC08134910521F082349105B9F058C03F
S11305308BE390E0FC018081482F8A81282F30E0F2
S113054081E090E002C0880F991F2A95E2F7242FDA
S113055028278BE390E0FC01208344C088E390E0EB
S1130560FC018081482F8A81282F30E081E090E0CF
S113057002C0880F991F2A95E2F7242F282788E3C1
S113058090E0FC0120832EC085E390E0FC01808193
S1130590482F8A81282F30E081E090E002C0880F44
S11305A0991F2A95E2F7242F282785E390E0FC0180
S11305B0208318C082E390E0FC018081482F8A8167
S11305C0282F30E081E090E002C0880F991F2A951F
S11305D0E2F7242F282782E390E0FC01208302C065
S11305E081E001C080E00F900F90DF91CF910895DA
S11305F01F920F920FB60F9211242F933F934F9394
S11306005F936F937F938F939F93AF93BF93EF9376
S1130610FF93CF93DF93CDB7DEB7809170009091B5
S11306207100FC0109950000DF91CF91FF91EF91DA
S1130630BF91AF919F918F917F916F915F914F91F6
S11306403F912F910F900FBE0F901F901895CF934D
S1130650DF93CDB7DEB78FE090E00E946802000020
S1130660DF91CF910895CF93DF9300D000D0CDB721
S1130670DEB79A8389837C836B83809172008A308E
S1130680A1F489819A81892B31F089819A8190938F
S11306906F0080936E008B819C81892B31F08B815C
S11306A09C81909371008093700000000F900F90D4
S11306B00F900F90DF91CF910895CF93DF9300D0E7
S11306C0CDB7DEB79A83898389819A81892B09F40E
S11306D009C189819A81FC018281882F90E0292FA8
S11306E0332727FD3A9580E490E0FC01208389E2DA
S11306F090E029813A81F9012281FC0120838981DA
S11307009A81FC0180818D3049F48AE290E0FC01F9
S113071020818AE290E02860FC01208389819A810B
S1130720FC0181818F3049F48AE290E0FC01208150
S11307308AE290E02061FC01208389819A81FC0196
S11307408381882349F420E430E080E490E0F901D7
S11307502081FC0120831FC089819A81FC0183814F
S1130760813051F480E490E0FC01208180E490E049
S11307702062FC0120830FC089819A81FC0183815E
S1130780823049F480E490E0FC01208180E490E030
S11307902063FC01208389819A81FC018381843058
S11307A051F480E490E0FC01208180E490E0286032
S11307B0FC0120830EC089819A81FC0183818330EE
S11307C041F420E430E080E490E0F9012081FC0170
S11307D0208389819A81FC018581853049F420E454
S11307E030E080E490E0F9012081FC0120833FC0E7
S11307F089819A81FC018581863051F480E490E0FE
S1130800FC01208180E490E02260FC0120832FC061
S113081089819A81FC018581873051F480E490E0DC
S1130820FC01208180E490E02460FC0120831FC04F
S113083089819A81FC018581883051F480E490E0BB
S1130840FC01208180E490E02660FC0120830FC03D
S113085089819A81FC018581893049F480E490E0A2
S1130860FC01208180E490E02660FC0120838981E2
S11308709A81FC0186818A3089F58AE0809372002E
S11308808FE590E0FC0120818FE590E02068FC0179
S1130890208389819A81FC0181818F3061F48AE20D
S11308A090E0FC0120818AE290E02068FC01208332
S11308B08FE08093730089819A81FC0180818D305F
S11308C099F48AE290E0FC0120818AE290E02064BD
S11308D0FC0120838DE08093740006C08BE080933C
S11308E0720002C08CE000C00F900F90DF91CF9196
S11308F00895CF93DF93CDB7DEB72CE230E040917B
S113090075005091760080917700882F90E0840FD5
S1130910951FF9012081FC0120838091750090913D
S11309207600FC018081833321F461E080E00E9441
S11309306C01809177008F5F809377000000DF91D6
S1130940CF910895CF93DF93CDB7DEB729970FB634
S1130950F894DEBF0FBECDBF9987888788859985B7
S1130960892B09F449C088859985FC01808180938D
S1130970600088859985FC018181928190937B0038
S113098080937A0088859985FC01838180937E0019
S113099088859985FC018481809378008885998570
S11309A0FC0185818093790080917E008823A1F4E5
S11309B0809178008983809179008A8383E38B8393
S11309C01C8283E08D8388E08E838AE08F83CE014E
S11309D001960E945D030AC080917E00813031F04F
S11309E080917E00823011F080917E0069E774E08E
S11309F080E090E00E943303000029960FB6F8943B
S1130A00DEBF0FBECDBFDF91CF910895CF93DF93AB
S1130A1000D00F92CDB7DEB79A8389836B83898127
S1130A209A8190937600809375008B81882F90E053
S1130A3090937D0080937C0000000F900F900F90A6
S10D0A40DF91CF910895F894FFCFE1
S1110A4A2323333074696542236400000D0FCA
S9030000FC
