:100000000C942A000C9447000C9447000C94470071
:100010000C9447000C9447000C9447000C94470044
:100020000C9447000C9447000C9447000C94470034
:100030000C9447000C944C000C9455000C94470011
:100040000C9447000C9447000C9447000C94470014
:100050000C94470011241FBECFE5D8E0DEBFCDBF12
:1000600010E0A0E6B0E0ECEBF0E002C005900D92ED
:10007000A036B107D9F720E0A0E6B0E001C01D929C
:10008000A336B207E1F70E9449000C945C000C947F
:1000900000000E945B00FDCF8F9381E080936100A0
:1000A0008CB1809362008F9118958F9381E080933B
:0C00B00060008F9118950895F894FFCF20
:00000001FF
