S00B000042434D2E7372656347
S11300000C942A000C9447000C9447000C9447006D
S11300100C9447000C9447000C9447000C94470040
S11300200C9447000C9447000C9447000C94470030
S11300300C9447000C947E020C9447000C94B30279
S11300400C9447000C9447000C9447000C94470010
S11300500C94470011241FBECFE5D8E0DEBFCDBF0E
S113006010E0A0E6B0E0ECEBFCE002C005900D92DD
S1130070A836B107D9F721E0A8E6B0E001C01D9287
S1130080A238B207E1F70E9475000C945C060C9448
S11300900000CF93DF930F92CDB7DEB781E0898361
S11300A08981813089F461E070E08CE090E00E9405
S11300B0870061E070E08CE090E00E94820188E6B5
S11300C090E00E941B060CC061E070E08CE090E0C0
S11300D00E94870060E070E08CE090E00E94820162
S11300E000000F90DF91CF910895CF93DF93CDB7A8
S11300F0DEB782E690E00E94FF0464E088E690E0C8
S11301000E946B0589E490E00E94FB05FBCFCF932E
S1130110DF9300D00F92CDB7DEB78A836B838A81D9
S1130120803218F48A81803210F080E0E5C08A8140
S11301308695869586958F5B89838A8187708A8365
S11301408981882F90E08434910509F4A3C0853413
S113015091050CF0CEC08334910509F46BC084344E
S113016091050CF0C6C08134910521F082349105CB
S113017089F1BFC08B818823B9F48AE390E0FC0144
S11301808081482F8A81282F30E081E090E002C0EE
S1130190880F991F2A95E2F78095242F28238AE354
S11301A090E0FC012083A7C08AE390E0FC018081F9
S11301B0482F8A81282F30E081E090E002C0880F28
S11301C0991F2A95E2F7242F282B8AE390E0FC015B
S11301D0208391C08B818823B9F487E390E0FC01EC
S11301E08081482F8A81282F30E081E090E002C08E
S11301F0880F991F2A95E2F78095242F282387E3F7
S113020090E0FC01208377C087E390E0FC018081CB
S1130210482F8A81282F30E081E090E002C0880FC7
S1130220991F2A95E2F7242F282B87E390E0FC01FD
S1130230208361C08B818823B9F484E390E0FC01BE
S11302408081482F8A81282F30E081E090E002C02D
S1130250880F991F2A95E2F78095242F282384E399
S113026090E0FC01208347C084E390E0FC0180819E
S1130270482F8A81282F30E081E090E002C0880F67
S1130280991F2A95E2F7242F282B84E390E0FC01A0
S1130290208331C08B818823B9F481E390E0FC0191
S11302A08081482F8A81282F30E081E090E002C0CD
S11302B0880F991F2A95E2F78095242F282381E33C
S11302C090E0FC01208315C081E390E0FC01808173
S11302D0482F8A81282F30E081E090E002C0880F07
S11302E0991F2A95E2F7242F282B81E390E0FC0143
S11302F0208381E001C080E00F900F900F90DF9188
S1130300CF910895CF93DF9300D00F92CDB7DEB78E
S11303108A836B838A81803218F48A81803210F058
S113032081E0E6C08A818695869586958F5B898370
S11303308A8187708A838981882F90E0843491052B
S113034009F4A3C0853491050CF0CFC08334910522
S113035009F46BC0843491050CF0C7C08134910555
S113036021F08234910589F1C0C08B818823B9F4CE
S11303708BE390E0FC018081482F8A81282F30E0B4
S113038081E090E002C0880F991F2A95E2F78095DA
S1130390242F28238BE390E0FC012083A8C08BE367
S11303A090E0FC018081482F8A81282F30E081E091
S11303B090E002C0880F991F2A95E2F7242F282B7A
S11303C08BE390E0FC01208392C08B818823B9F4F5
S11303D088E390E0FC018081482F8A81282F30E057
S11303E081E090E002C0880F991F2A95E2F780957A
S11303F0242F282388E390E0FC01208378C088E33D
S113040090E0FC018081482F8A81282F30E081E030
S113041090E002C0880F991F2A95E2F7242F282B19
S113042088E390E0FC01208362C08B818823B9F4C7
S113043085E390E0FC018081482F8A81282F30E0F9
S113044081E090E002C0880F991F2A95E2F7809519
S1130450242F282385E390E0FC01208348C085E312
S113046090E0FC018081482F8A81282F30E081E0D0
S113047090E002C0880F991F2A95E2F7242F282BB9
S113048085E390E0FC01208332C08B818823B9F49A
S113049082E390E0FC018081482F8A81282F30E09C
S11304A081E090E002C0880F991F2A95E2F78095B9
S11304B0242F282382E390E0FC01208318C082E3E8
S11304C090E0FC018081482F8A81282F30E081E070
S11304D090E002C0880F991F2A95E2F7242F282B59
S11304E082E390E0FC01208302C081E001C080E04F
S11304F00F900F900F90DF91CF9108951F920F925C
S11305000FB60F9211242F933F934F935F936F93E2
S11305107F938F939F93AF93BF93EF93FF93CF9367
S1130520DF93CDB7DEB780916E0090916F00892B79
S113053031F080916E0090916F00FC0109950000EC
S1130540DF91CF91FF91EF91BF91AF919F918F91E7
S11305507F916F915F914F913F912F910F900FBEBB
S11305600F901F9018951F920F920FB60F9211249F
S11305702F933F934F935F936F937F938F939F93A7
S1130580AF93BF93EF93FF93CF93DF93CDB7DEB7D2
S113059080916C0090916D00892B31F080916C00FA
S11305A090916D00FC0109950000DF91CF91FF91BE
S11305B0EF91BF91AF919F918F917F916F915F91D7
S11305C04F913F912F910F900FBE0F901F90189550
S11305D0CF93DF9300D000D0CDB7DEB79A83898361
S11305E07C836B83809170008A30A1F489819A8125
S11305F0892B31F089819A8190936D0080936C00EE
S11306008B819C81892B31F08B819C8190936F002D
S113061080936E0000000F900F900F900F90DF9169
S1130620CF910895CF93DF9300D0CDB7DEB79A83EF
S1130630898389819A81892B09F409C189819A81E5
S1130640FC018281882F90E0292F332727FD3A95DA
S113065080E490E0FC01208389E290E029813A81E2
S1130660F9012281FC01208389819A81FC01808126
S11306708D3049F48AE290E0FC0120818AE290E026
S11306802860FC01208389819A81FC0181818E305C
S113069049F48AE290E0FC0120818AE290E0206142
S11306A0FC01208389819A81FC018381882349F498
S11306B020E430E080E490E0F9012081FC01208313
S11306C01FC089819A81FC018381813051F480E4C7
S11306D090E0FC01208180E490E02062FC01208312
S11306E00FC089819A81FC018381823049F480E4BE
S11306F090E0FC01208180E490E02063FC012083F1
S113070089819A81FC018381843051F480E490E0F2
S1130710FC01208180E490E02860FC0120830EC06D
S113072089819A81FC018381833041F420E430E0A3
S113073080E490E0F9012081FC01208389819A8181
S1130740FC018581853049F420E430E080E490E0C8
S1130750F9012081FC0120833FC089819A81FC0139
S11307608581863051F480E490E0FC01208180E4AE
S113077090E02260FC0120832FC089819A81FC01D2
S11307808581873051F480E490E0FC01208180E48D
S113079090E02460FC0120831FC089819A81FC01C0
S11307A08581883051F480E490E0FC01208180E46C
S11307B090E02660FC0120830FC089819A81FC01AE
S11307C08581893049F480E490E0FC01208180E453
S11307D090E02660FC01208389819A81FC01868156
S11307E08A3089F58AE0809370008FE590E0FC01FF
S11307F020818FE590E02068FC01208389819A8123
S1130800FC0181818E3061F48AE290E0FC01208158
S11308108AE290E02068FC0120838EE080937100DE
S113082089819A81FC0180818D3099F48AE290E07B
S1130830FC0120818AE290E02064FC0120838DE0A9
S11308408093720006C08BE08093700002C08CE03D
S113085000C00F900F90DF91CF910895CF93DF9355
S113086000D0CDB7DEB79A838983809171008E3032
S113087099F4809170008B3039F400008BE290E0A1
S1130880FC0180818823D4F72CE230E089819A81AD
S1130890F9012081FC01208300000F900F90DF916B
S11308A0CF910895CF93DF93CDB7DEB780E891E081
S11308B00E942E04809161008D3081F4809160004B
S11308C0282F30E080918001909181012817390709
S11308D009F086C084E08093610082C08091610049
S11308E0843081F4209177003091780080918001E8
S11308F0909181012817390709F072C08EE0809326
S113090061006EC0809161008E3091F48091770017
S113091090917800292F3327809180019091810153
S11309202817390709F05CC086E08093610058C03D
S113093080916100863009F053C020917E0130918E
S11309407F0180917700909178002817390728F566
S1130950409180015091810120917C0130917D0171
S113096080917E0190917F01820F931F242FFC01BF
S113097020838091800190918101982F80917B0147
S1130980890F80937B0180917E0190917F01019674
S113099090937F0180937E0123C020917E0130914A
S11309A07F01809177009091780028173907C1F46E
S11309B080917B01282F30E080918001909181010A
S11309C02817390721F488E08093610003C089E087
S11309D08093610010927B0110927F0110927E013E
S11309E00000DF91CF910895CF93DF93CDB7DEB7A9
S11309F081E080937A010000DF91CF910895CF9335
S1130A00DF93CDB7DEB729970FB6F894DEBF0FBEDC
S1130A10CDBF9987888788859985892B09F451C02A
S1130A2088859985FC0180818093600088859985FB
S1130A30FC01818192819093760080937500888572
S1130A409985FC0183818093790088859985FC01CF
S1130A5084818093730088859985FC0185818093C6
S1130A60740080917900882311F561E084E00E948C
S1130A70870061E084E00E94820180917300898391
S1130A80809174008A8383E38B831C8283E08D834B
S1130A9088E08E838AE08F83CE0101960E94120340
S1130AA062E574E084EF94E00E94E8020AC0809159
S1130AB07900813031F080917900823011F0809199
S1130AC07900000029960FB6F894DEBF0FBECDBFA3
S1130AD0DF91CF910895CF93DF9300D000D0CDB7AD
S1130AE0DEB79B838A836C8380916100823009F036
S1130AF07AC061E086E00E94870061E086E00E949F
S1130B0082018A819B8190937D0180937C018C81F9
S1130B10282F30E08091750090917600821793071A
S1130B2008F461C061E087E00E94870061E087E02B
S1130B300E9482018A819B81892B09F454C061E05F
S1130B4088E00E94870061E088E00E948201809131
S1130B5079018823F1F0198216C08981882F90E0E9
S1130B6086589F4FFC018081882F90E09C018A81E8
S1130B709B818217930721F483E08093610033C043
S1130B8089818F5F8983809179019981981728F3EE
S1130B902AC061E08DE00E94870061E08DE00E9440
S1130BA082018A819B8190937D0180937C018C8159
S1130BB0882F90E0909378008093770080917C0157
S1130BC090917D019C0180917901882F90E0865855
S1130BD09F4FFC012083809179018F5F809379017D
S1130BE08DE08093610000000F900F900F900F90A4
S1130BF0DF91CF910895CF93DF9300D0CDB7DEB7C7
S1130C009A83898380916100883079F489819A81FB
S1130C10FC01099561E08AE00E94870061E08AE0B6
S1130C200E94820182E08093610000000F900F9087
S1130C30DF91CF910895CF93DF9300D00F92CDB77A
S1130C40DEB79B838A8380917901882371F11982AD
S1130C5027C08981882F90E086589F4FFC018081AE
S1130C60882F90E09C018A819B8182179307A9F4C5
S1130C7061E08EE00E94870061E08EE00E948201C4
S1130C808981882F90E086589F4FFC0110828091C3
S1130C90790181508093790108C089818F5F8983AC
S1130CA08091790199819817A0F200000F900F901C
S10F0CB00F90DF91CF910895F894FFCFCE
S10B0CBC2302236400000F0E63
S9030000FC
