:100000000C942A000C9447000C9447000C94470071
:100010000C9447000C9447000C9447000C94470044
:100020000C9447000C9447000C9447000C94470034
:100030000C9447000C94F8000C9447000C94270192
:100040000C9447000C9447000C9447000C94470014
:100050000C94470011241FBECFE5D8E0DEBFCDBF12
:1000600010E0A0E6B0E0E2EFF8E002C005900D92EB
:10007000A836B107D9F720E0A8E6B0E001C01D928C
:10008000AF37B207E1F70E9449000C9477040C9453
:100090000000CF93DF9300D000D000D0CDB7DEB703
:1000A00084E799E69A83898385E68B8384E795E6DE
:1000B0009D838C8381E68E8382E690E00E94BC0261
:1000C00063E0CE0101960E9420030E948603FDCFCB
:1000D000CF93DF9300D0CDB7DEB78A838A81803299
:1000E00018F48A81803210F081E07DC08A81869583
:1000F000869586958F5B89838A8187708A838981BB
:10010000882F90E08434910509F454C0853491051A
:100110000CF066C083349105B9F1843491050CF07C
:100120005FC08134910521F082349105B9F058C047
:100130008BE390E0FC018081482F8A81282F30E0FA
:1001400081E090E002C0880F991F2A95E2F7242FE2
:1001500028278BE390E0FC01208344C088E390E0F3
:10016000FC018081482F8A81282F30E081E090E0D7
:1001700002C0880F991F2A95E2F7242F282788E3C9
:1001800090E0FC0120832EC085E390E0FC0180819B
:10019000482F8A81282F30E081E090E002C0880F4C
:1001A000991F2A95E2F7242F282785E390E0FC0188
:1001B000208318C082E390E0FC018081482F8A816F
:1001C000282F30E081E090E002C0880F991F2A9527
:1001D000E2F7242F282782E390E0FC01208302C06D
:1001E00081E001C080E00F900F90DF91CF910895E2
:1001F0001F920F920FB60F9211242F933F934F939C
:100200005F936F937F938F939F93AF93BF93EF937E
:10021000FF93CF93DF93CDB7DEB780916A009091C3
:100220006B00FC0109950000DF91CF91FF91EF91E8
:10023000BF91AF919F918F917F916F915F914F91FE
:100240003F912F910F900FBE0F901F901895CF9355
:10025000DF93CDB7DEB78FE090E00E94680000002A
:10026000DF91CF910895CF93DF9300D000D0CDB729
:10027000DEB79A8389837C836B8380916C008A309C
:10028000A1F489819A81892B31F089819A81909397
:100290006900809368008B819C81892B31F08B8170
:1002A0009C8190936B0080936A0000000F900F90E8
:1002B0000F900F90DF91CF910895CF93DF9300D0EF
:1002C000CDB7DEB79A83898389819A81892B09F416
:1002D00009C189819A81FC018281882F90E0292FB0
:1002E000332727FD3A9580E490E0FC01208389E2E2
:1002F00090E029813A81F9012281FC0120838981E2
:100300009A81FC0180818D3049F48AE290E0FC0101
:1003100020818AE290E02860FC01208389819A8113
:10032000FC0181818F3049F48AE290E0FC01208158
:100330008AE290E02061FC01208389819A81FC019E
:100340008381882349F420E430E080E490E0F901DF
:100350002081FC0120831FC089819A81FC01838157
:10036000813051F480E490E0FC01208180E490E051
:100370002062FC0120830FC089819A81FC01838166
:10038000823049F480E490E0FC01208180E490E038
:100390002063FC01208389819A81FC018381843060
:1003A00051F480E490E0FC01208180E490E028603A
:1003B000FC0120830EC089819A81FC0183818330F6
:1003C00041F420E430E080E490E0F9012081FC0178
:1003D000208389819A81FC018581853049F420E45C
:1003E00030E080E490E0F9012081FC0120833FC0EF
:1003F00089819A81FC018581863051F480E490E006
:10040000FC01208180E490E02260FC0120832FC069
:1004100089819A81FC018581873051F480E490E0E4
:10042000FC01208180E490E02460FC0120831FC057
:1004300089819A81FC018581883051F480E490E0C3
:10044000FC01208180E490E02660FC0120830FC045
:1004500089819A81FC018581893049F480E490E0AA
:10046000FC01208180E490E02660FC0120838981EA
:100470009A81FC0186818A3089F58AE080936C003C
:100480008FE590E0FC0120818FE590E02068FC0181
:10049000208389819A81FC0181818F3061F48AE215
:1004A00090E0FC0120818AE290E02068FC0120833A
:1004B0008FE080936D0089819A81FC0180818D306D
:1004C00099F48AE290E0FC0120818AE290E02064C5
:1004D000FC0120838DE080936E0006C08BE080934A
:1004E0006C0002C08CE000C00F900F90DF91CF91A4
:1004F0000895CF93DF930F92CDB7DEB789838091B4
:100500006E008D30A1F480916C008B3059F40000A6
:100510008BE290E0FC018081882F90E08072992727
:10052000892BB1F38CE290E02981FC01208300004B
:100530000F90DF91CF910895CF93DF93CDB7DEB7C2
:100540002CE230E040917100509172008091730074
:10055000882F90E0840F951FF9012081FC012083F2
:1005600080E00E946800809173008F5F8093730029
:100570000000DF91CF910895CF93DF93CDB7DEB721
:1005800029970FB6F894DEBF0FBECDBF9987888735
:1005900088859985892B09F449C088859985FC014E
:1005A00080818093600088859985FC01818192819A
:1005B000909377008093760088859985FC018381EC
:1005C00080937A0088859985FC01848180937400EA
:1005D00088859985FC0185818093750080917A00DA
:1005E0008823A1F4809174008983809175008A83A7
:1005F00083E38B831C8283E08D8388E08E838AE093
:100600008F83CE0101960E945D010AC080917A001D
:10061000813031F080917A00823011F080917A003F
:100620006CE972E080E090E00E94330100002996BE
:100630000FB6F894DEBF0FBECDBFDF91CF91089506
:10064000CF93DF9300D00F92CDB7DEB79A83898323
:100650006B8380916100863161F5809174008D30EB
:1006600021F58B81282F30E08091760090917700E2
:1006700082179307B0F089819A81892B09F43FC0D2
:1006800089819A819093700080936F008B81882F6D
:1006900090E0909379008093780085E180936100E9
:1006A0002EC083E1809361002AC084E180936100C1
:1006B00026C080916100893111F58B81282F30E0AF
:1006C000809176009091770082179307A8F0898136
:1006D0009A81892BA1F089819A81909370008093EF
:1006E0006F008B81882F90E0909379008093780041
:1006F00085E18093610003C083E180936100000085
:100700000F900F900F90DF91CF910895CF93DF93CB
:10071000CDB7DEB780916100853141F480916000F2
:100720000E9479028EE080936100DDC080916100BB
:100730008E30E9F58BE290E0FC018081882F90E01B
:1007400080749927892B41F180917B00823020F5BC
:100750008BE290E0FC0120818BE290E02064FC01C0
:100760002083809178009091790020917B00222F46
:1007700030E0220F331F220F331F220F331F02C01E
:10078000969587952A95E2F70E94790280917B00E1
:100790008F5F80937B00A7C080917B00823009F03F
:1007A000A2C08FE08093610010927B009CC080917A
:1007B00061008F3009F097C08BE290E0FC018081EE
:1007C000882F90E080749927892BE9F120917C0093
:1007D00030917D0080917800909179002817390739
:1007E00090F58BE290E0FC0120818BE290E02064A8
:1007F000FC01208320916F003091700080917C007B
:1008000090917D00820F931FFC0180810E947902EC
:1008100020916F003091700080917C0090917D005C
:10082000820F931FFC01908180917E00890F80933D
:100830007E0080917C0090917D00019690937D00D8
:1008400080937C0050C020917C0030917D0080918D
:100850007800909179002817390729F58BE290E00C
:10086000FC018081882F90E080749927892BD9F032
:100870008BE290E0FC0120818BE290E02064FC019F
:10088000208380917E000E94790280917C0090916B
:100890007D00019690937D0080937C0010927B00F8
:1008A00010927E0020C08BE290E0FC018081882FB6
:1008B00090E080749927892BB1F080917C00909111
:1008C0007D00049781F410927D0010927C008BE2F1
:1008D00090E0FC0120818BE290E02064FC01208309
:1008E00089E1809361000000DF91CF910895F89431
:0208F000FFCF38
:0808F2002316236400000D0F22
:00000001FF
