:100000000C942A000C9447000C9447000C94470071
:100010000C9447000C9447000C9447000C94470044
:100020000C9447000C9447000C9447000C94470034
:100030000C9447000C94EB020C9447000C942003A2
:100040000C9447000C9447000C9447000C94470014
:100050000C94470011241FBECFE5D8E0DEBFCDBF12
:1000600010E0A0E6B0E0E2EFFBE002C005900D92E8
:10007000A836B107D9F721E0A8E6B0E001C01D928B
:10008000A238B207E1F70E9451000C94F7050C94D6
:100090000000CF93DF93CDB7DEB70000DF91CF91A3
:1000A0000895CF93DF93CDB7DEB782E690E00E944C
:1000B000FC0440E067E088E690E00E94680589E47F
:1000C00090E00E94D705FBCFCF93DF9300D00F9233
:1000D000CDB7DEB78A836B838A81803218F48A8138
:1000E000803210F080E0E5C08A81869586958695FD
:1000F0008F5B89838A8187708A838981882F90E0CA
:100100008434910509F4A3C0853491050CF0CEC068
:100110008334910509F46BC0843491050CF0C6C09A
:100120008134910521F08234910589F1BFC08B8122
:100130008823B9F48AE390E0FC018081482F8A810A
:10014000282F30E081E090E002C0880F991F2A95A7
:10015000E2F78095242F28238AE390E0FC01208396
:10016000A7C08AE390E0FC018081482F8A81282F74
:1001700030E081E090E002C0880F991F2A95E2F7F5
:10018000242F282B8AE390E0FC01208391C08B81EF
:100190008823B9F487E390E0FC018081482F8A81AD
:1001A000282F30E081E090E002C0880F991F2A9547
:1001B000E2F78095242F282387E390E0FC01208339
:1001C00077C087E390E0FC018081482F8A81282F47
:1001D00030E081E090E002C0880F991F2A95E2F795
:1001E000242F282B87E390E0FC01208361C08B81C2
:1001F0008823B9F484E390E0FC018081482F8A8150
:10020000282F30E081E090E002C0880F991F2A95E6
:10021000E2F78095242F282384E390E0FC012083DB
:1002200047C084E390E0FC018081482F8A81282F19
:1002300030E081E090E002C0880F991F2A95E2F734
:10024000242F282B84E390E0FC01208331C08B8194
:100250008823B9F481E390E0FC018081482F8A81F2
:10026000282F30E081E090E002C0880F991F2A9586
:10027000E2F78095242F282381E390E0FC0120837E
:1002800015C081E390E0FC018081482F8A81282FEE
:1002900030E081E090E002C0880F991F2A95E2F7D4
:1002A000242F282B81E390E0FC01208381E001C012
:1002B00080E00F900F900F90DF91CF910895CF9332
:1002C000DF9300D00F92CDB7DEB78A836B838A812C
:1002D000803218F48A81803210F081E0E6C08A8191
:1002E0008695869586958F5B89838A8187708A83B8
:1002F0008981882F90E08434910509F4A3C0853466
:1003000091050CF0CFC08334910509F46BC084349F
:1003100091050CF0C7C08134910521F0823491051C
:1003200089F1C0C08B818823B9F48BE390E0FC0194
:100330008081482F8A81282F30E081E090E002C040
:10034000880F991F2A95E2F78095242F28238BE3A5
:1003500090E0FC012083A8C08BE390E0FC01808149
:10036000482F8A81282F30E081E090E002C0880F7A
:10037000991F2A95E2F7242F282B8BE390E0FC01AC
:10038000208392C08B818823B9F488E390E0FC013C
:100390008081482F8A81282F30E081E090E002C0E0
:1003A000880F991F2A95E2F78095242F282388E348
:1003B00090E0FC01208378C088E390E0FC0180811C
:1003C000482F8A81282F30E081E090E002C0880F1A
:1003D000991F2A95E2F7242F282B88E390E0FC014F
:1003E000208362C08B818823B9F485E390E0FC010F
:1003F0008081482F8A81282F30E081E090E002C080
:10040000880F991F2A95E2F78095242F282385E3EA
:1004100090E0FC01208348C085E390E0FC018081EE
:10042000482F8A81282F30E081E090E002C0880FB9
:10043000991F2A95E2F7242F282B85E390E0FC01F1
:10044000208332C08B818823B9F482E390E0FC01E1
:100450008081482F8A81282F30E081E090E002C01F
:10046000880F991F2A95E2F78095242F282382E38D
:1004700090E0FC01208318C082E390E0FC018081C1
:10048000482F8A81282F30E081E090E002C0880F59
:10049000991F2A95E2F7242F282B82E390E0FC0194
:1004A000208302C081E001C080E00F900F900F9088
:1004B000DF91CF910895CF93DF9300D0CDB7DEB712
:1004C0008A838A81803218F48A81803210F081E038
:1004D0007DC08A818695869586958F5B89838A8182
:1004E00087708A838981882F90E08434910509F48C
:1004F00054C0853491050CF066C083349105B9F180
:10050000843491050CF05FC08134910521F0823470
:100510009105B9F058C08BE390E0FC018081482F31
:100520008A81282F30E081E090E002C0880F991F77
:100530002A95E2F7242F28278BE390E0FC01208303
:1005400044C088E390E0FC018081482F8A81282FF5
:1005500030E081E090E002C0880F991F2A95E2F711
:10056000242F282788E390E0FC0120832EC085E318
:1005700090E0FC018081482F8A81282F30E081E0C3
:1005800090E002C0880F991F2A95E2F7242F2827B0
:1005900085E390E0FC01208318C082E390E0FC0139
:1005A0008081482F8A81282F30E081E090E002C0CE
:1005B000880F991F2A95E2F7242F282782E390E0DD
:1005C000FC01208302C081E001C080E00F900F9009
:1005D000DF91CF9108951F920F920FB60F921124C1
:1005E0002F933F934F935F936F937F938F939F933B
:1005F000AF93BF93EF93FF93CF93DF93CDB7DEB766
:100600008091710090917200892B31F0809171007E
:1006100090917200FC0109950000DF91CF91FF914C
:10062000EF91BF91AF919F918F917F916F915F916A
:100630004F913F912F910F900FBE0F901F901895E3
:100640001F920F920FB60F9211242F933F934F9347
:100650005F936F937F938F939F93AF93BF93EF932A
:10066000FF93CF93DF93CDB7DEB780916F0090916A
:100670007000892B31F080916F0090917000FC0127
:1006800009950000DF91CF91FF91EF91BF91AF915C
:100690009F918F917F916F915F914F913F912F919A
:1006A0000F900FBE0F901F901895CF93DF9300D03F
:1006B00000D0CDB7DEB79A8389837C836B8380912A
:1006C00073008A30A1F489819A81892B31F0898164
:1006D0009A819093700080936F008B819C81892B0D
:1006E00031F08B819C8190937200809371000000A7
:1006F0000F900F900F900F90DF91CF910895CF93AF
:10070000DF9300D0CDB7DEB79A83898389819A8140
:10071000892B09F409C189819A81FC018281882F82
:1007200090E0292F332727FD3A9580E490E0FC01E3
:10073000208389E290E029813A81F9012281FC013C
:10074000208389819A81FC0180818D3049F48AE27D
:1007500090E0FC0120818AE290E02860FC01208387
:1007600089819A81FC0181818E3049F48AE290E08E
:10077000FC0120818AE290E02061FC0120838981D4
:100780009A81FC018381882349F420E430E080E4ED
:1007900090E0F9012081FC0120831FC089819A81AA
:1007A000FC018381813051F480E490E0FC012081E0
:1007B00080E490E02062FC0120830FC089819A814F
:1007C000FC018381823049F480E490E0FC012081C7
:1007D00080E490E02063FC01208389819A81FC0100
:1007E0008381843051F480E490E0FC01208180E436
:1007F00090E02860FC0120830EC089819A81FC0171
:100800008381833041F420E430E080E490E0F9011A
:100810002081FC01208389819A81FC0185818530BA
:1008200049F420E430E080E490E0F9012081FC010B
:1008300020833FC089819A81FC018581863051F4F3
:1008400080E490E0FC01208180E490E02260FC01E3
:1008500020832FC089819A81FC018581873051F4E2
:1008600080E490E0FC01208180E490E02460FC01C1
:1008700020831FC089819A81FC018581883051F4D1
:1008800080E490E0FC01208180E490E02660FC019F
:1008900020830FC089819A81FC018581893049F4C8
:1008A00080E490E0FC01208180E490E02660FC017F
:1008B000208389819A81FC0186818A3089F58AE0CA
:1008C000809373008FE590E0FC0120818FE590E03C
:1008D0002068FC01208389819A81FC0181818E300E
:1008E00061F48AE290E0FC0120818AE290E02068D5
:1008F000FC0120838EE08093740089819A81FC0141
:1009000080818D3099F48AE290E0FC0120818AE2B6
:1009100090E02064FC0120838DE08093750006C088
:100920008BE08093730002C08CE000C00F900F90AA
:10093000DF91CF910895CF93DF9300D0CDB7DEB78D
:100940009A838983809174008E3099F4809173002A
:100950008B3039F400008BE290E0FC018081882329
:10096000D4F72CE230E089819A81F9012081FC01E1
:10097000208300000F900F90DF91CF910895CF93C7
:10098000DF93CDB7DEB761E085E00E94640085E0CB
:100990000E945B0280917A0090917B009C012C5F09
:1009A0003F4F809180019091810182179307A8F4B5
:1009B00080918001909181010196909381018093B3
:1009C000800120917E0130917F0180918001909182
:1009D0008101820F931F0E949B040000DF91CF9141
:1009E0000895CF93DF93CDB7DEB781E080937D018B
:1009F0000000DF91CF910895CF93DF93CDB7DEB79D
:100A000029970FB6F894DEBF0FBECDBF99878887B0
:100A100088859985892B09F451C088859985FC01C1
:100A200080818093600088859985FC018181928115
:100A3000909379008093780088859985FC01838163
:100A400080937C0088859985FC0184818093760061
:100A500088859985FC0185818093770080917C0051
:100A6000882311F561E084E00E94640061E084E085
:100A70000E945F01809176008983809177008A834C
:100A800083E38B831C8283E08D8388E08E838AE0FE
:100A90008F83CE0101960E947F036FEB74E081EF9C
:100AA00094E00E9455030AC080917C00813031F0AF
:100AB00080917C00823011F080917C0000002996AA
:100AC0000FB6F894DEBF0FBECDBFDF91CF91089572
:100AD000CF93DF9300D000D0CDB7DEB79A83898360
:100AE0006B834C8380916100823009F058C061E0D3
:100AF00086E00E94640061E086E00E945F018981D7
:100B00009A8190937F0180937E018B81282F30E022
:100B100080917800909179008217930708F43FC084
:100B200061E087E00E94640061E087E00E945F016D
:100B300089819A81892B99F161E088E00E946400A3
:100B400061E088E00E945F0189819A8190937F0132
:100B500080937E018B81882F90E090937B0080931F
:100B60007A0080917D008823B9F461E089E00E94D9
:100B7000640061E089E00E945F018C8180937C01C8
:100B80008C81882F90E083589F4F21E0FC012083C7
:100B90008DE08093610003C083E0809361000000DA
:100BA0000F900F900F900F90DF91CF910895CF93FA
:100BB000DF9300D0CDB7DEB79A838983809161003F
:100BC000883061F489819A81FC01099561E08AE0AD
:100BD0000E94640061E08AE00E945F0182E08093ED
:100BE000610000000F900F90DF91CF910895F8946D
:020BF000FFCF35
:080BF2002302236400000F0E32
:00000001FF
