:100000000C942A000C9447000C9447000C94470071
:100010000C9447000C9447000C9447000C94470044
:100020000C9447000C9447000C9447000C94470034
:100030000C9447000C9468020C9447000C949D02A9
:100040000C9447000C9447000C9447000C94470014
:100050000C94470011241FBECFE5D8E0DEBFCDBF12
:1000600010E0A0E6B0E0E2E3FCE002C005900D92F3
:10007000AA36B107D9F720E0AAE6B0E001C01D9288
:10008000A138B207E1F70E9449000C9417060C94BE
:100090000000CF93DF9300D000D000D0CDB7DEB703
:1000A00084E799E69C838B8385E691E39E838D8329
:1000B00083E690E00E948804CE01039664E00E94EB
:1000C000F4041A82198205C089819A8101969A8363
:1000D000898389819A81803D9740B4F30E945A05B3
:1000E000FDCFCF93DF9300D00F92CDB7DEB78A83D9
:1000F0006B838A81803218F48A81803210F080E02C
:10010000E5C08A818695869586958F5B89838A81ED
:1001100087708A838981882F90E08434910509F45F
:10012000A3C0853491050CF0CEC08334910509F449
:100130006BC0843491050CF0C6C08134910521F068
:100140008234910589F1BFC08B818823B9F48AE399
:1001500090E0FC018081482F8A81282F30E081E0E7
:1001600090E002C0880F991F2A95E2F78095242F0E
:1001700028238AE390E0FC012083A7C08AE390E073
:10018000FC018081482F8A81282F30E081E090E0B7
:1001900002C0880F991F2A95E2F7242F282B8AE3A3
:1001A00090E0FC01208391C08B818823B9F487E320
:1001B00090E0FC018081482F8A81282F30E081E087
:1001C00090E002C0880F991F2A95E2F78095242FAE
:1001D000282387E390E0FC01208377C087E390E049
:1001E000FC018081482F8A81282F30E081E090E057
:1001F00002C0880F991F2A95E2F7242F282B87E346
:1002000090E0FC01208361C08B818823B9F484E3F2
:1002100090E0FC018081482F8A81282F30E081E026
:1002200090E002C0880F991F2A95E2F78095242F4D
:10023000282384E390E0FC01208347C084E390E01E
:10024000FC018081482F8A81282F30E081E090E0F6
:1002500002C0880F991F2A95E2F7242F282B84E3E8
:1002600090E0FC01208331C08B818823B9F481E3C5
:1002700090E0FC018081482F8A81282F30E081E0C6
:1002800090E002C0880F991F2A95E2F78095242FED
:10029000282381E390E0FC01208315C081E390E0F6
:1002A000FC018081482F8A81282F30E081E090E096
:1002B00002C0880F991F2A95E2F7242F282B81E38B
:1002C00090E0FC01208381E001C080E00F900F905E
:1002D0000F90DF91CF910895CF93DF9300D00F92CD
:1002E000CDB7DEB78A836B838A81803218F48A8126
:1002F000803210F081E0E6C08A81869586958695E9
:100300008F5B89838A8187708A838981882F90E0B7
:100310008434910509F4A3C0853491050CF0CFC055
:100320008334910509F46BC0843491050CF0C7C087
:100330008134910521F08234910589F1C0C08B810F
:100340008823B9F48BE390E0FC018081482F8A81F7
:10035000282F30E081E090E002C0880F991F2A9595
:10036000E2F78095242F28238BE390E0FC01208383
:10037000A8C08BE390E0FC018081482F8A81282F60
:1003800030E081E090E002C0880F991F2A95E2F7E3
:10039000242F282B8BE390E0FC01208392C08B81DB
:1003A0008823B9F488E390E0FC018081482F8A819A
:1003B000282F30E081E090E002C0880F991F2A9535
:1003C000E2F78095242F282388E390E0FC01208326
:1003D00078C088E390E0FC018081482F8A81282F33
:1003E00030E081E090E002C0880F991F2A95E2F783
:1003F000242F282B88E390E0FC01208362C08B81AE
:100400008823B9F485E390E0FC018081482F8A813C
:10041000282F30E081E090E002C0880F991F2A95D4
:10042000E2F78095242F282385E390E0FC012083C8
:1004300048C085E390E0FC018081482F8A81282F05
:1004400030E081E090E002C0880F991F2A95E2F722
:10045000242F282B85E390E0FC01208332C08B8180
:100460008823B9F482E390E0FC018081482F8A81DF
:10047000282F30E081E090E002C0880F991F2A9574
:10048000E2F78095242F282382E390E0FC0120836B
:1004900018C082E390E0FC018081482F8A81282FD8
:1004A00030E081E090E002C0880F991F2A95E2F7C2
:1004B000242F282B82E390E0FC01208302C081E0FE
:1004C00001C080E00F900F900F90DF91CF910895C1
:1004D0001F920F920FB60F9211242F933F934F93B9
:1004E0005F936F937F938F939F93AF93BF93EF939C
:1004F000FF93CF93DF93CDB7DEB780916C009091DF
:100500006D00892B31F080916C0090916D00FC01A1
:1005100009950000DF91CF91FF91EF91BF91AF91CD
:100520009F918F917F916F915F914F913F912F910B
:100530000F900FBE0F901F9018951F920F920FB63D
:100540000F9211242F933F934F935F936F937F9359
:100550008F939F93AF93BF93EF93FF93CF93DF93CB
:10056000CDB7DEB780916A0090916B00892B31F096
:1005700080916A0090916B00FC0109950000DF9169
:10058000CF91FF91EF91BF91AF919F918F917F910B
:100590006F915F914F913F912F910F900FBE0F90F0
:1005A0001F901895CF93DF9300D000D0CDB7DEB762
:1005B0009A8389837C836B8380916E008A30A1F457
:1005C00089819A81892B31F089819A8190936B007E
:1005D00080936A008B819C81892B31F08B819C8177
:1005E00090936D0080936C0000000F900F900F901F
:1005F0000F90DF91CF910895CF93DF9300D0CDB7C7
:10060000DEB79A83898389819A81892B09F409C18C
:1006100089819A81FC018281882F90E0292F3327DC
:1006200027FD3A9580E490E0FC01208389E290E088
:1006300029813A81F9012281FC01208389819A81F3
:10064000FC0180818D3049F48AE290E0FC01208138
:100650008AE290E02860FC01208389819A81FC0174
:1006600081818E3049F48AE290E0FC0120818AE2A7
:1006700090E02061FC01208389819A81FC018381C3
:10068000882349F420E430E080E490E0F9012081FF
:10069000FC0120831FC089819A81FC018381813004
:1006A00051F480E490E0FC01208180E490E020623D
:1006B000FC0120830FC089819A81FC0183818230F3
:1006C00049F480E490E0FC01208180E490E0206324
:1006D000FC01208389819A81FC018381843051F45B
:1006E00080E490E0FC01208180E490E02860FC013F
:1006F00020830EC089819A81FC018381833041F47B
:1007000020E430E080E490E0F9012081FC012083C6
:1007100089819A81FC018581853049F420E430E0AB
:1007200080E490E0F9012081FC0120833FC08981B1
:100730009A81FC018581863051F480E490E0FC01CF
:10074000208180E490E02260FC0120832FC0898119
:100750009A81FC018581873051F480E490E0FC01AE
:10076000208180E490E02460FC0120831FC0898107
:100770009A81FC018581883051F480E490E0FC018D
:10078000208180E490E02660FC0120830FC08981F5
:100790009A81FC018581893049F480E490E0FC0174
:1007A000208180E490E02660FC01208389819A8189
:1007B000FC0186818A3089F58AE080936E008FE59E
:1007C00090E0FC0120818FE590E02068FC0120830F
:1007D00089819A81FC0181818E3061F48AE290E006
:1007E000FC0120818AE290E02068FC0120838EE0F9
:1007F00080936F0089819A81FC0180818D3099F40A
:100800008AE290E0FC0120818AE290E02064FC0111
:1008100020838DE08093700006C08BE080936E0093
:1008200002C08CE000C00F900F90DF91CF9108952F
:10083000CF93DF930F92CDB7DEB78983809170009D
:100840008D30A1F480916E008B3059F400008BE262
:1008500090E0FC018081882F90E080729927892B9D
:10086000B1F38CE290E02981FC01208300000F901D
:10087000DF91CF910895CF93DF9300D0CDB7DEB74E
:100880009A83898380916F008E3099F480916E00F5
:100890008B3039F400008BE290E0FC0180818823EA
:1008A000D4F72CE230E089819A81F9012081FC01A2
:1008B000208300000F900F90DF91CF910895CF9388
:1008C000DF93CDB7DEB78BE790E00E943B048091C9
:1008D0007B0090917C00813C910559F461E085E0BA
:1008E0000E94710061E085E00E946C0184E08093C9
:1008F00062000000DF91CF910895CF93DF93CDB7D1
:10090000DEB781E080937A000000DF91CF910895F7
:10091000CF93DF93CDB7DEB729970FB6F894DEBF3C
:100920000FBECDBF9987888788859985892B09F463
:1009300051C088859985FC018081809360008885FD
:100940009985FC0181819281909376008093750056
:1009500088859985FC0183818093790088859985B4
:10096000FC0184818093730088859985FC018581D1
:100970008093740080917900882311F561E084E010
:100980000E94710061E084E00E946C01809173001C
:100990008983809174008A8383E38B831C8283E044
:1009A0008D8388E08E838AE08F83CE0101960E943A
:1009B000FC026FE574E08DE794E00E94D2020AC069
:1009C00080917900813031F080917900823011F08E
:1009D00080917900000029960FB6F894DEBF0FBE13
:1009E000CDBFDF91CF910895CF93DF9300D00F92C9
:1009F000CDB7DEB79A8389836B838091610086319E
:100A000061F5809173008D3021F58B81282F30E0C6
:100A1000809175009091760082179307B0F08981DC
:100A20009A81892B09F43FC089819A819093720041
:100A3000809371008B81882F90E090937800809351
:100A4000770085E1809361002EC083E1809361008F
:100A50002AC084E18093610026C0809161008931C1
:100A600011F58B81282F30E08091750090917600F0
:100A700082179307A8F089819A81892BA1F0898137
:100A80009A8190937200809371008B81882F90E0FF
:100A9000909378008093770085E18093610003C094
:100AA00083E18093610000000F900F900F90DF9121
:100AB000CF910895CF93DF93CDB7DEB780916100DA
:100AC000853141F4809160000E9418048EE080938B
:100AD0006100A9C0809161008E3081F580917A001B
:100AE000882309F180917D008230E8F410927A0029
:100AF000809177009091780020917D00222F30E046
:100B0000220F331F220F331F220F331F02C096956F
:100B100087952A95E2F70E94180480917D008F5FE7
:100B200080937D0080C080917D00823009F07BC081
:100B30008FE08093610010927D0075C0809161000C
:100B40008F3009F070C080917A008823B1F1209134
:100B50007E0030917F008091770090917800281777
:100B6000390758F510927A00209171003091720087
:100B700080917E0090917F00820F931FFC01808105
:100B80000E941804209171003091720080917E00C3
:100B900090917F00820F931FFC01908180918000D3
:100BA000890F8093800080917E0090917F00019654
:100BB00090937F0080937E0036C080917A008823D6
:100BC000F9F020917E0030917F0080917700909124
:100BD000780028173907A1F410927A0080918000DC
:100BE0000E94180480917E0090917F00019690935E
:100BF0007F0080937E0010927D001092800013C0D1
:100C000080917A00882379F080917E0090917F0016
:100C1000049749F410927A0010927F0010927E009F
:100C200089E1809361000000DF91CF910895F894ED
:020C3000FFCFF4
:0A0C3200231602236400000D1000D9
:00000001FF
